{
  "contractName": "LeaseProperty",
  "abi": [
    {
      "constant": true,
      "inputs": [
        {
          "name": "",
          "type": "uint256"
        }
      ],
      "name": "customers",
      "outputs": [
        {
          "name": "",
          "type": "address"
        }
      ],
      "payable": false,
      "stateMutability": "view",
      "type": "function"
    },
    {
      "constant": false,
      "inputs": [
        {
          "name": "productId",
          "type": "uint256"
        }
      ],
      "name": "buy",
      "outputs": [
        {
          "name": "",
          "type": "uint256"
        }
      ],
      "payable": false,
      "stateMutability": "nonpayable",
      "type": "function"
    },
    {
      "constant": true,
      "inputs": [],
      "name": "getCustomers",
      "outputs": [
        {
          "name": "",
          "type": "address[16]"
        }
      ],
      "payable": false,
      "stateMutability": "view",
      "type": "function"
    }
  ],
  "bytecode": "0x608060405234801561001057600080fd5b506102d8806100206000396000f300608060405260043610610057576000357c0100000000000000000000000000000000000000000000000000000000900463ffffffff168063c0abda2a1461005c578063d96a094a146100c9578063f1ba71271461010a575b600080fd5b34801561006857600080fd5b506100876004803603810190808035906020019092919050505061015d565b604051808273ffffffffffffffffffffffffffffffffffffffff1673ffffffffffffffffffffffffffffffffffffffff16815260200191505060405180910390f35b3480156100d557600080fd5b506100f460048036038101908080359060200190929190505050610192565b6040518082815260200191505060405180910390f35b34801561011657600080fd5b5061011f610207565b6040518082601060200280838360005b8381101561014a57808201518184015260208101905061012f565b5050505090500191505060405180910390f35b60008160108110151561016c57fe5b016000915054906101000a900473ffffffffffffffffffffffffffffffffffffffff1681565b60008082101580156101a55750600f8211155b15156101b057600080fd5b336000836010811015156101c057fe5b0160006101000a81548173ffffffffffffffffffffffffffffffffffffffff021916908373ffffffffffffffffffffffffffffffffffffffff160217905550819050919050565b61020f610288565b600060108060200260405190810160405280929190826010801561027e576020028201915b8160009054906101000a900473ffffffffffffffffffffffffffffffffffffffff1673ffffffffffffffffffffffffffffffffffffffff1681526020019060010190808311610234575b5050505050905090565b610200604051908101604052806010906020820280388339808201915050905050905600a165627a7a723058207a342b259a56c6b01c773528e96fd67f440290a3c4ec86c114f33ce2908888e10029",
  "source": "pragma solidity ^0.4.24;\n\ncontract LeaseProperty {\n\n        address[16] public customers;\n\n        //buy a product\n        function buy(uint productId) public returns (uint) {\n                require(productId >= 0 && productId <= 15);\n                customers[productId] = msg.sender;\n                return productId;\n        }\n\n        //retrieving the customers\n        function getCustomers() public view returns (address[16]) {\n                return customers;\n        }\n}\n\n\n\n",
  "sourcePath": "/home/uh2959/CC_Project/contracts/BuyProduct.sol",
  "compiler": {
    "name": "solc",
    "version": "0.4.24+commit.e67f0147.Emscripten.clang"
  },
  "schemaVersion": "2.0.1",
  "updatedAt": "2021-11-18T18:23:17.755Z"
}